{
  "contractName": "Platform",
  "abi": [
    {
      "anonymous": false,
      "inputs": [
        {
          "indexed": true,
          "internalType": "address",
          "name": "user",
          "type": "address"
        },
        {
          "indexed": true,
          "internalType": "address",
          "name": "creator",
          "type": "address"
        },
        {
          "indexed": true,
          "internalType": "uint256",
          "name": "fee",
          "type": "uint256"
        }
      ],
      "name": "CreatorFollowed",
      "type": "event"
    },
    {
      "anonymous": false,
      "inputs": [
        {
          "indexed": true,
          "internalType": "address",
          "name": "user",
          "type": "address"
        },
        {
          "indexed": true,
          "internalType": "address",
          "name": "creator",
          "type": "address"
        },
        {
          "indexed": true,
          "internalType": "uint256",
          "name": "fee",
          "type": "uint256"
        }
      ],
      "name": "CreatorUnfollowed",
      "type": "event"
    },
    {
      "anonymous": false,
      "inputs": [
        {
          "indexed": false,
          "internalType": "address",
          "name": "creator",
          "type": "address"
        },
        {
          "indexed": false,
          "internalType": "string",
          "name": "name",
          "type": "string"
        },
        {
          "indexed": false,
          "internalType": "uint256",
          "name": "fee",
          "type": "uint256"
        }
      ],
      "name": "NewCreator",
      "type": "event"
    },
    {
      "anonymous": false,
      "inputs": [
        {
          "indexed": false,
          "internalType": "string",
          "name": "title",
          "type": "string"
        },
        {
          "indexed": false,
          "internalType": "address",
          "name": "creator",
          "type": "address"
        }
      ],
      "name": "NewPost",
      "type": "event"
    },
    {
      "anonymous": false,
      "inputs": [
        {
          "indexed": true,
          "internalType": "address",
          "name": "from",
          "type": "address"
        },
        {
          "indexed": true,
          "internalType": "address",
          "name": "to",
          "type": "address"
        },
        {
          "indexed": true,
          "internalType": "uint256",
          "name": "amount",
          "type": "uint256"
        },
        {
          "indexed": false,
          "internalType": "uint256",
          "name": "time",
          "type": "uint256"
        }
      ],
      "name": "StreamUpdate",
      "type": "event"
    },
    {
      "inputs": [
        {
          "internalType": "address",
          "name": "",
          "type": "address"
        }
      ],
      "name": "addressToCreatorId",
      "outputs": [
        {
          "internalType": "uint256",
          "name": "",
          "type": "uint256"
        }
      ],
      "stateMutability": "view",
      "type": "function",
      "constant": true
    },
    {
      "inputs": [
        {
          "internalType": "address",
          "name": "",
          "type": "address"
        },
        {
          "internalType": "uint256",
          "name": "",
          "type": "uint256"
        }
      ],
      "name": "creatorToPostIds",
      "outputs": [
        {
          "internalType": "uint256",
          "name": "",
          "type": "uint256"
        }
      ],
      "stateMutability": "view",
      "type": "function",
      "constant": true
    },
    {
      "inputs": [
        {
          "internalType": "uint256",
          "name": "",
          "type": "uint256"
        }
      ],
      "name": "creators",
      "outputs": [
        {
          "internalType": "uint256",
          "name": "id",
          "type": "uint256"
        },
        {
          "internalType": "string",
          "name": "name",
          "type": "string"
        },
        {
          "internalType": "string",
          "name": "photoHash",
          "type": "string"
        },
        {
          "internalType": "address",
          "name": "addr",
          "type": "address"
        },
        {
          "internalType": "uint256",
          "name": "fee",
          "type": "uint256"
        },
        {
          "internalType": "uint256",
          "name": "postCount",
          "type": "uint256"
        },
        {
          "internalType": "uint256",
          "name": "followerCount",
          "type": "uint256"
        },
        {
          "internalType": "uint256",
          "name": "creatorSince",
          "type": "uint256"
        }
      ],
      "stateMutability": "view",
      "type": "function",
      "constant": true
    },
    {
      "inputs": [
        {
          "internalType": "address",
          "name": "",
          "type": "address"
        }
      ],
      "name": "isCreator",
      "outputs": [
        {
          "internalType": "bool",
          "name": "",
          "type": "bool"
        }
      ],
      "stateMutability": "view",
      "type": "function",
      "constant": true
    },
    {
      "inputs": [
        {
          "internalType": "address",
          "name": "",
          "type": "address"
        },
        {
          "internalType": "address",
          "name": "",
          "type": "address"
        }
      ],
      "name": "isFollower",
      "outputs": [
        {
          "internalType": "bool",
          "name": "",
          "type": "bool"
        }
      ],
      "stateMutability": "view",
      "type": "function",
      "constant": true
    },
    {
      "inputs": [
        {
          "internalType": "uint256",
          "name": "",
          "type": "uint256"
        }
      ],
      "name": "posts",
      "outputs": [
        {
          "internalType": "uint256",
          "name": "id",
          "type": "uint256"
        },
        {
          "internalType": "string",
          "name": "title",
          "type": "string"
        },
        {
          "internalType": "uint256",
          "name": "createdOn",
          "type": "uint256"
        },
        {
          "internalType": "address",
          "name": "creator",
          "type": "address"
        },
        {
          "internalType": "string",
          "name": "tags",
          "type": "string"
        }
      ],
      "stateMutability": "view",
      "type": "function",
      "constant": true
    },
    {
      "inputs": [
        {
          "internalType": "string",
          "name": "_name",
          "type": "string"
        },
        {
          "internalType": "string",
          "name": "_photoHash",
          "type": "string"
        },
        {
          "internalType": "uint256",
          "name": "_fee",
          "type": "uint256"
        }
      ],
      "name": "addCreator",
      "outputs": [],
      "stateMutability": "nonpayable",
      "type": "function"
    },
    {
      "inputs": [],
      "name": "getCreators",
      "outputs": [
        {
          "internalType": "address[]",
          "name": "",
          "type": "address[]"
        },
        {
          "internalType": "uint256",
          "name": "",
          "type": "uint256"
        }
      ],
      "stateMutability": "view",
      "type": "function",
      "constant": true
    },
    {
      "inputs": [
        {
          "internalType": "address",
          "name": "_addr",
          "type": "address"
        }
      ],
      "name": "getCreatorByAddress",
      "outputs": [
        {
          "components": [
            {
              "internalType": "uint256",
              "name": "id",
              "type": "uint256"
            },
            {
              "internalType": "string",
              "name": "name",
              "type": "string"
            },
            {
              "internalType": "string",
              "name": "photoHash",
              "type": "string"
            },
            {
              "internalType": "address",
              "name": "addr",
              "type": "address"
            },
            {
              "internalType": "uint256",
              "name": "fee",
              "type": "uint256"
            },
            {
              "internalType": "uint256",
              "name": "postCount",
              "type": "uint256"
            },
            {
              "internalType": "uint256",
              "name": "followerCount",
              "type": "uint256"
            },
            {
              "internalType": "uint256",
              "name": "creatorSince",
              "type": "uint256"
            }
          ],
          "internalType": "struct Platform.Creator",
          "name": "",
          "type": "tuple"
        }
      ],
      "stateMutability": "view",
      "type": "function",
      "constant": true
    },
    {
      "inputs": [
        {
          "internalType": "string",
          "name": "_docHash",
          "type": "string"
        },
        {
          "internalType": "string",
          "name": "_title",
          "type": "string"
        },
        {
          "internalType": "string",
          "name": "_tags",
          "type": "string"
        }
      ],
      "name": "createPost",
      "outputs": [],
      "stateMutability": "nonpayable",
      "type": "function"
    },
    {
      "inputs": [],
      "name": "getPosts",
      "outputs": [
        {
          "internalType": "string[]",
          "name": "",
          "type": "string[]"
        },
        {
          "internalType": "uint256",
          "name": "",
          "type": "uint256"
        }
      ],
      "stateMutability": "view",
      "type": "function",
      "constant": true
    },
    {
      "inputs": [
        {
          "internalType": "uint256",
          "name": "_id",
          "type": "uint256"
        }
      ],
      "name": "canViewPost",
      "outputs": [
        {
          "internalType": "bool",
          "name": "",
          "type": "bool"
        }
      ],
      "stateMutability": "view",
      "type": "function",
      "constant": true
    },
    {
      "inputs": [
        {
          "internalType": "uint256",
          "name": "_id",
          "type": "uint256"
        }
      ],
      "name": "viewPost",
      "outputs": [
        {
          "components": [
            {
              "internalType": "uint256",
              "name": "id",
              "type": "uint256"
            },
            {
              "internalType": "string",
              "name": "title",
              "type": "string"
            },
            {
              "internalType": "uint256",
              "name": "createdOn",
              "type": "uint256"
            },
            {
              "internalType": "address",
              "name": "creator",
              "type": "address"
            },
            {
              "internalType": "string",
              "name": "tags",
              "type": "string"
            }
          ],
          "internalType": "struct Platform.Post",
          "name": "",
          "type": "tuple"
        }
      ],
      "stateMutability": "view",
      "type": "function",
      "constant": true
    },
    {
      "inputs": [
        {
          "internalType": "address",
          "name": "_addr",
          "type": "address"
        }
      ],
      "name": "getCreatorPosts",
      "outputs": [
        {
          "internalType": "uint256[]",
          "name": "",
          "type": "uint256[]"
        }
      ],
      "stateMutability": "view",
      "type": "function",
      "constant": true
    },
    {
      "inputs": [
        {
          "internalType": "address",
          "name": "_addr",
          "type": "address"
        }
      ],
      "name": "followCreator",
      "outputs": [],
      "stateMutability": "nonpayable",
      "type": "function"
    },
    {
      "inputs": [
        {
          "internalType": "address",
          "name": "_addr",
          "type": "address"
        }
      ],
      "name": "unfollowCreator",
      "outputs": [],
      "stateMutability": "nonpayable",
      "type": "function"
    }
  ],
  "bytecode": "0x608060405234801561001057600080fd5b50612bb1806100206000396000f3fe608060405234801561001057600080fd5b50600436106101005760003560e01c8063a47995ae11610097578063e5fe947711610066578063e5fe947714610303578063e6adc1ee14610333578063e8a4a1eb14610352578063efd460651461036e57610100565b8063a47995ae14610250578063b2d6d47514610280578063cd53d08e146102b0578063d15decea146102e757610100565b806341f3004a116100d357806341f3004a146101b55780634a0a0a1b146101d45780634d90bc37146102045780634ddaaca01461022057610100565b806303c0f7d2146101055780630b1e7f831461013557806318196191146101695780632a99ac3314610185575b600080fd5b61011f600480360381019061011a9190612116565b61039e565b60405161012c9190612821565b60405180910390f35b61014f600480360381019061014a9190612116565b6105d5565b6040516101609594939291906128ea565b60405180910390f35b610183600480360381019061017e9190611f5f565b610768565b005b61019f600480360381019061019a9190612116565b610a0e565b6040516101ac91906126f4565b60405180910390f35b6101bd610cd0565b6040516101cb9291906126a2565b60405180910390f35b6101ee60048036038101906101e99190611f5f565b610e21565b6040516101fb91906127ff565b60405180910390f35b61021e60048036038101906102199190611f5f565b611068565b005b61023a60048036038101906102359190611f5f565b611312565b60405161024791906126d2565b60405180910390f35b61026a60048036038101906102659190611fc4565b611430565b6040516102779190612843565b60405180910390f35b61029a60048036038101906102959190611f5f565b61145e565b6040516102a79190612843565b60405180910390f35b6102ca60048036038101906102c59190612116565b611476565b6040516102de98979695949392919061285e565b60405180910390f35b61030160048036038101906102fc9190612097565b61161b565b005b61031d60048036038101906103189190611f88565b6118cd565b60405161032a91906126f4565b60405180910390f35b61033b6118fc565b604051610349929190612672565b60405180910390f35b61036c60048036038101906103679190612000565b6119ff565b005b61038860048036038101906103839190611f5f565b611cdf565b60405161039591906126f4565b60405180910390f35b6103a6611da4565b6103ae611da4565b600083815481106103bb57fe5b90600052602060002090600502016040518060a001604052908160008201548152602001600182018054600181600116156101000203166002900480601f0160208091040260200160405190810160405280929190818152602001828054600181600116156101000203166002900480156104775780601f1061044c57610100808354040283529160200191610477565b820191906000526020600020905b81548152906001019060200180831161045a57829003601f168201915b50505050508152602001600282015481526020016003820160009054906101000a900473ffffffffffffffffffffffffffffffffffffffff1673ffffffffffffffffffffffffffffffffffffffff1673ffffffffffffffffffffffffffffffffffffffff168152602001600482018054600181600116156101000203166002900480601f0160208091040260200160405190810160405280929190818152602001828054600181600116156101000203166002900480156105795780601f1061054e57610100808354040283529160200191610579565b820191906000526020600020905b81548152906001019060200180831161055c57829003601f168201915b505050505081525050905061058d83610a0e565b6105cc576040517f08c379a00000000000000000000000000000000000000000000000000000000081526004016105c3906127bf565b60405180910390fd5b80915050919050565b600081815481106105e257fe5b9060005260206000209060050201600091509050806000015490806001018054600181600116156101000203166002900480601f0160208091040260200160405190810160405280929190818152602001828054600181600116156101000203166002900480156106945780601f1061066957610100808354040283529160200191610694565b820191906000526020600020905b81548152906001019060200180831161067757829003601f168201915b5050505050908060020154908060030160009054906101000a900473ffffffffffffffffffffffffffffffffffffffff1690806004018054600181600116156101000203166002900480601f01602080910402602001604051908101604052809291908181526020018280546001816001161561010002031660029004801561075e5780601f106107335761010080835404028352916020019161075e565b820191906000526020600020905b81548152906001019060200180831161074157829003601f168201915b5050505050905085565b600660003373ffffffffffffffffffffffffffffffffffffffff1673ffffffffffffffffffffffffffffffffffffffff16815260200190815260200160002060008273ffffffffffffffffffffffffffffffffffffffff1673ffffffffffffffffffffffffffffffffffffffff16815260200190815260200160002060009054906101000a900460ff16610831576040517f08c379a0000000000000000000000000000000000000000000000000000000008152600401610828906127bf565b60405180910390fd5b6000600660003373ffffffffffffffffffffffffffffffffffffffff1673ffffffffffffffffffffffffffffffffffffffff16815260200190815260200160002060008373ffffffffffffffffffffffffffffffffffffffff1673ffffffffffffffffffffffffffffffffffffffff16815260200190815260200160002060006101000a81548160ff02191690831515021790555060006001600360008473ffffffffffffffffffffffffffffffffffffffff1673ffffffffffffffffffffffffffffffffffffffff168152602001908152602001600020548154811061091457fe5b9060005260206000209060080201905061093c60018260060154611cff90919063ffffffff16565b816006018190555080600401548273ffffffffffffffffffffffffffffffffffffffff163373ffffffffffffffffffffffffffffffffffffffff167f3665fecf351329f38aaab1d709f49fd928f53204ab8d39e03ad74458ab6eaf5960405160405180910390a460008273ffffffffffffffffffffffffffffffffffffffff163373ffffffffffffffffffffffffffffffffffffffff167f115012faf0cb42f05ca23aa5e422a0db007750b0c753886a75b6516c78dff0aa42604051610a029190612843565b60405180910390a45050565b6000610a18611da4565b60008381548110610a2557fe5b90600052602060002090600502016040518060a001604052908160008201548152602001600182018054600181600116156101000203166002900480601f016020809104026020016040519081016040528092919081815260200182805460018160011615610100020316600290048015610ae15780601f10610ab657610100808354040283529160200191610ae1565b820191906000526020600020905b815481529060010190602001808311610ac457829003601f168201915b50505050508152602001600282015481526020016003820160009054906101000a900473ffffffffffffffffffffffffffffffffffffffff1673ffffffffffffffffffffffffffffffffffffffff1673ffffffffffffffffffffffffffffffffffffffff168152602001600482018054600181600116156101000203166002900480601f016020809104026020016040519081016040528092919081815260200182805460018160011615610100020316600290048015610be35780601f10610bb857610100808354040283529160200191610be3565b820191906000526020600020905b815481529060010190602001808311610bc657829003601f168201915b5050505050815250509050600660003373ffffffffffffffffffffffffffffffffffffffff1673ffffffffffffffffffffffffffffffffffffffff1681526020019081526020016000206000826060015173ffffffffffffffffffffffffffffffffffffffff1673ffffffffffffffffffffffffffffffffffffffff16815260200190815260200160002060009054906101000a900460ff1680610cb657503373ffffffffffffffffffffffffffffffffffffffff16816060015173ffffffffffffffffffffffffffffffffffffffff16145b15610cc5576001915050610ccb565b60009150505b919050565b60606000606060008054905067ffffffffffffffff81118015610cf257600080fd5b50604051908082528060200260200182016040528015610d2657816020015b6060815260200190600190039081610d115790505b50905060005b600080549050811015610e145760008181548110610d4657fe5b90600052602060002090600502016001018054600181600116156101000203166002900480601f016020809104026020016040519081016040528092919081815260200182805460018160011615610100020316600290048015610deb5780601f10610dc057610100808354040283529160200191610deb565b820191906000526020600020905b815481529060010190602001808311610dce57829003601f168201915b5050505050828281518110610dfc57fe5b60200260200101819052508080600101915050610d2c565b5080815192509250509091565b610e29611de9565b6000600360008473ffffffffffffffffffffffffffffffffffffffff1673ffffffffffffffffffffffffffffffffffffffff16815260200190815260200160002054905060018181548110610e7a57fe5b90600052602060002090600802016040518061010001604052908160008201548152602001600182018054600181600116156101000203166002900480601f016020809104026020016040519081016040528092919081815260200182805460018160011615610100020316600290048015610f375780601f10610f0c57610100808354040283529160200191610f37565b820191906000526020600020905b815481529060010190602001808311610f1a57829003601f168201915b50505050508152602001600282018054600181600116156101000203166002900480601f016020809104026020016040519081016040528092919081815260200182805460018160011615610100020316600290048015610fd95780601f10610fae57610100808354040283529160200191610fd9565b820191906000526020600020905b815481529060010190602001808311610fbc57829003601f168201915b505050505081526020016003820160009054906101000a900473ffffffffffffffffffffffffffffffffffffffff1673ffffffffffffffffffffffffffffffffffffffff1673ffffffffffffffffffffffffffffffffffffffff168152602001600482015481526020016005820154815260200160068201548152602001600782015481525050915050919050565b60006001600360008473ffffffffffffffffffffffffffffffffffffffff1673ffffffffffffffffffffffffffffffffffffffff16815260200190815260200160002054815481106110b657fe5b90600052602060002090600802019050600660003373ffffffffffffffffffffffffffffffffffffffff1673ffffffffffffffffffffffffffffffffffffffff16815260200190815260200160002060008373ffffffffffffffffffffffffffffffffffffffff1673ffffffffffffffffffffffffffffffffffffffff16815260200190815260200160002060009054906101000a900460ff1615611190576040517f08c379a0000000000000000000000000000000000000000000000000000000008152600401611187906127df565b60405180910390fd5b6001600660003373ffffffffffffffffffffffffffffffffffffffff1673ffffffffffffffffffffffffffffffffffffffff16815260200190815260200160002060008473ffffffffffffffffffffffffffffffffffffffff1673ffffffffffffffffffffffffffffffffffffffff16815260200190815260200160002060006101000a81548160ff02191690831515021790555061123d60018260060154611d4f90919063ffffffff16565b816006018190555080600401548273ffffffffffffffffffffffffffffffffffffffff163373ffffffffffffffffffffffffffffffffffffffff167f370be1f4064299e7206653c1237c2b5c7bf890ba75d1bdff384957799473aa4560405160405180910390a480600401548273ffffffffffffffffffffffffffffffffffffffff163373ffffffffffffffffffffffffffffffffffffffff167f115012faf0cb42f05ca23aa5e422a0db007750b0c753886a75b6516c78dff0aa426040516113069190612843565b60405180910390a45050565b606080600560008473ffffffffffffffffffffffffffffffffffffffff1673ffffffffffffffffffffffffffffffffffffffff1681526020019081526020016000208054905067ffffffffffffffff8111801561136e57600080fd5b5060405190808252806020026020018201604052801561139d5781602001602082028036833780820191505090505b50905060005b815181101561142657600560008573ffffffffffffffffffffffffffffffffffffffff1673ffffffffffffffffffffffffffffffffffffffff16815260200190815260200160002081815481106113f657fe5b906000526020600020015482828151811061140d57fe5b60200260200101818152505080806001019150506113a3565b5080915050919050565b6005602052816000526040600020818154811061144957fe5b90600052602060002001600091509150505481565b60036020528060005260406000206000915090505481565b6001818154811061148357fe5b9060005260206000209060080201600091509050806000015490806001018054600181600116156101000203166002900480601f0160208091040260200160405190810160405280929190818152602001828054600181600116156101000203166002900480156115355780601f1061150a57610100808354040283529160200191611535565b820191906000526020600020905b81548152906001019060200180831161151857829003601f168201915b505050505090806002018054600181600116156101000203166002900480601f0160208091040260200160405190810160405280929190818152602001828054600181600116156101000203166002900480156115d35780601f106115a8576101008083540402835291602001916115d3565b820191906000526020600020905b8154815290600101906020018083116115b657829003601f168201915b5050505050908060030160009054906101000a900473ffffffffffffffffffffffffffffffffffffffff16908060040154908060050154908060060154908060070154905088565b600460003373ffffffffffffffffffffffffffffffffffffffff1673ffffffffffffffffffffffffffffffffffffffff16815260200190815260200160002060009054906101000a900460ff16156116a8576040517f08c379a000000000000000000000000000000000000000000000000000000000815260040161169f9061279f565b60405180910390fd5b6001600460003373ffffffffffffffffffffffffffffffffffffffff1673ffffffffffffffffffffffffffffffffffffffff16815260200190815260200160002060006101000a81548160ff02191690831515021790555060006001805490509050611712611de9565b6040518061010001604052808381526020018681526020018581526020013373ffffffffffffffffffffffffffffffffffffffff168152602001848152602001600081526020016000815260200142815250905060018190806001815401808255809150506001900390600052602060002090600802016000909190919091506000820151816000015560208201518160010190805190602001906117b8929190611e44565b5060408201518160020190805190602001906117d5929190611e44565b5060608201518160030160006101000a81548173ffffffffffffffffffffffffffffffffffffffff021916908373ffffffffffffffffffffffffffffffffffffffff1602179055506080820151816004015560a0820151816005015560c0820151816006015560e08201518160070155505081600360003373ffffffffffffffffffffffffffffffffffffffff1673ffffffffffffffffffffffffffffffffffffffff168152602001908152602001600020819055507fdeb966cbba5bf980a49e199ec3e0f4dd2fb0b0f099e52a52751c40cce5325f1d3386856040516118be93929190612634565b60405180910390a15050505050565b60066020528160005260406000206020528060005260406000206000915091509054906101000a900460ff1681565b60606000606060018054905067ffffffffffffffff8111801561191e57600080fd5b5060405190808252806020026020018201604052801561194d5781602001602082028036833780820191505090505b50905060005b6001805490508110156119f2576001818154811061196d57fe5b906000526020600020906008020160030160009054906101000a900473ffffffffffffffffffffffffffffffffffffffff168282815181106119ab57fe5b602002602001019073ffffffffffffffffffffffffffffffffffffffff16908173ffffffffffffffffffffffffffffffffffffffff16815250508080600101915050611953565b5080815192509250509091565b600460003373ffffffffffffffffffffffffffffffffffffffff1673ffffffffffffffffffffffffffffffffffffffff16815260200190815260200160002060009054906101000a900460ff16611a8b576040517f08c379a0000000000000000000000000000000000000000000000000000000008152600401611a829061277f565b60405180910390fd5b60008080549050905060006040518060a001604052808381526020018581526020014281526020013373ffffffffffffffffffffffffffffffffffffffff168152602001848152509080600181540180825580915050600190039060005260206000209060050201600090919091909150600082015181600001556020820151816001019080519060200190611b22929190611e44565b506040820151816002015560608201518160030160006101000a81548173ffffffffffffffffffffffffffffffffffffffff021916908373ffffffffffffffffffffffffffffffffffffffff1602179055506080820151816004019080519060200190611b90929190611e44565b505050600560003373ffffffffffffffffffffffffffffffffffffffff1673ffffffffffffffffffffffffffffffffffffffff16815260200190815260200160002081908060018154018082558091505060019003906000526020600020016000909190919091505583600260008381526020019081526020016000209080519060200190611c20929190611e44565b5060006001600360003373ffffffffffffffffffffffffffffffffffffffff1673ffffffffffffffffffffffffffffffffffffffff1681526020019081526020016000205481548110611c6f57fe5b90600052602060002090600802019050611c9760018260050154611d4f90919063ffffffff16565b81600501819055507f0ec58d40cf04a7d900a46d13c28d9b81b27d50829b510e5dbe68dbf3c13b69d68433604051611cd092919061270f565b60405180910390a15050505050565b60046020528060005260406000206000915054906101000a900460ff1681565b600082821115611d44576040517f08c379a0000000000000000000000000000000000000000000000000000000008152600401611d3b9061275f565b60405180910390fd5b818303905092915050565b600080828401905083811015611d9a576040517f08c379a0000000000000000000000000000000000000000000000000000000008152600401611d919061273f565b60405180910390fd5b8091505092915050565b6040518060a00160405280600081526020016060815260200160008152602001600073ffffffffffffffffffffffffffffffffffffffff168152602001606081525090565b604051806101000160405280600081526020016060815260200160608152602001600073ffffffffffffffffffffffffffffffffffffffff168152602001600081526020016000815260200160008152602001600081525090565b828054600181600116156101000203166002900490600052602060002090601f016020900481019282601f10611e8557805160ff1916838001178555611eb3565b82800160010185558215611eb3579182015b82811115611eb2578251825591602001919060010190611e97565b5b509050611ec09190611ec4565b5090565b5b80821115611edd576000816000905550600101611ec5565b5090565b600081359050611ef081612b4d565b92915050565b600082601f830112611f0757600080fd5b8135611f1a611f1582612978565b61294b565b91508082526020830160208301858383011115611f3657600080fd5b611f41838284612afa565b50505092915050565b600081359050611f5981612b64565b92915050565b600060208284031215611f7157600080fd5b6000611f7f84828501611ee1565b91505092915050565b60008060408385031215611f9b57600080fd5b6000611fa985828601611ee1565b9250506020611fba85828601611ee1565b9150509250929050565b60008060408385031215611fd757600080fd5b6000611fe585828601611ee1565b9250506020611ff685828601611f4a565b9150509250929050565b60008060006060848603121561201557600080fd5b600084013567ffffffffffffffff81111561202f57600080fd5b61203b86828701611ef6565b935050602084013567ffffffffffffffff81111561205857600080fd5b61206486828701611ef6565b925050604084013567ffffffffffffffff81111561208157600080fd5b61208d86828701611ef6565b9150509250925092565b6000806000606084860312156120ac57600080fd5b600084013567ffffffffffffffff8111156120c657600080fd5b6120d286828701611ef6565b935050602084013567ffffffffffffffff8111156120ef57600080fd5b6120fb86828701611ef6565b925050604061210c86828701611f4a565b9150509250925092565b60006020828403121561212857600080fd5b600061213684828501611f4a565b91505092915050565b600061214b8383612192565b60208301905092915050565b600061216383836122f0565b905092915050565b60006121778383612616565b60208301905092915050565b61218c81612ac4565b82525050565b61219b81612a7c565b82525050565b6121aa81612a7c565b82525050565b60006121bb826129d4565b6121c58185612a27565b93506121d0836129a4565b8060005b838110156122015781516121e8888261213f565b97506121f383612a00565b9250506001810190506121d4565b5085935050505092915050565b6000612219826129df565b6122238185612a38565b935083602082028501612235856129b4565b8060005b8581101561227157848403895281516122528582612157565b945061225d83612a0d565b925060208a01995050600181019050612239565b50829750879550505050505092915050565b600061228e826129ea565b6122988185612a49565b93506122a3836129c4565b8060005b838110156122d45781516122bb888261216b565b97506122c683612a1a565b9250506001810190506122a7565b5085935050505092915050565b6122ea81612a8e565b82525050565b60006122fb826129f5565b6123058185612a5a565b9350612315818560208601612b09565b61231e81612b3c565b840191505092915050565b6000612334826129f5565b61233e8185612a6b565b935061234e818560208601612b09565b61235781612b3c565b840191505092915050565b600061236f601b83612a6b565b91507f536166654d6174683a206164646974696f6e206f766572666c6f7700000000006000830152602082019050919050565b60006123af601e83612a6b565b91507f536166654d6174683a207375627472616374696f6e206f766572666c6f7700006000830152602082019050919050565b60006123ef601583612a6b565b91507f596f7520617265206e6f7420612063726561746f7200000000000000000000006000830152602082019050919050565b600061242f601983612a6b565b91507f596f752061726520616c726561647920612063726561746f72000000000000006000830152602082019050919050565b600061246f601683612a6b565b91507f596f7520617265206e6f74206120666f6c6c6f776572000000000000000000006000830152602082019050919050565b60006124af601a83612a6b565b91507f596f752061726520616c7265616479206120666f6c6c6f7765720000000000006000830152602082019050919050565b6000610100830160008301516124fb6000860182612616565b506020830151848203602086015261251382826122f0565b9150506040830151848203604086015261252d82826122f0565b91505060608301516125426060860182612192565b5060808301516125556080860182612616565b5060a083015161256860a0860182612616565b5060c083015161257b60c0860182612616565b5060e083015161258e60e0860182612616565b508091505092915050565b600060a0830160008301516125b16000860182612616565b50602083015184820360208601526125c982826122f0565b91505060408301516125de6040860182612616565b5060608301516125f16060860182612192565b506080830151848203608086015261260982826122f0565b9150508091505092915050565b61261f81612aba565b82525050565b61262e81612aba565b82525050565b60006060820190506126496000830186612183565b818103602083015261265b8185612329565b905061266a6040830184612625565b949350505050565b6000604082019050818103600083015261268c81856121b0565b905061269b6020830184612625565b9392505050565b600060408201905081810360008301526126bc818561220e565b90506126cb6020830184612625565b9392505050565b600060208201905081810360008301526126ec8184612283565b905092915050565b600060208201905061270960008301846122e1565b92915050565b600060408201905081810360008301526127298185612329565b90506127386020830184612183565b9392505050565b6000602082019050818103600083015261275881612362565b9050919050565b60006020820190508181036000830152612778816123a2565b9050919050565b60006020820190508181036000830152612798816123e2565b9050919050565b600060208201905081810360008301526127b881612422565b9050919050565b600060208201905081810360008301526127d881612462565b9050919050565b600060208201905081810360008301526127f8816124a2565b9050919050565b6000602082019050818103600083015261281981846124e2565b905092915050565b6000602082019050818103600083015261283b8184612599565b905092915050565b60006020820190506128586000830184612625565b92915050565b600061010082019050612874600083018b612625565b8181036020830152612886818a612329565b9050818103604083015261289a8189612329565b90506128a960608301886121a1565b6128b66080830187612625565b6128c360a0830186612625565b6128d060c0830185612625565b6128dd60e0830184612625565b9998505050505050505050565b600060a0820190506128ff6000830188612625565b81810360208301526129118187612329565b90506129206040830186612625565b61292d60608301856121a1565b818103608083015261293f8184612329565b90509695505050505050565b6000604051905081810181811067ffffffffffffffff8211171561296e57600080fd5b8060405250919050565b600067ffffffffffffffff82111561298f57600080fd5b601f19601f8301169050602081019050919050565b6000819050602082019050919050565b6000819050602082019050919050565b6000819050602082019050919050565b600081519050919050565b600081519050919050565b600081519050919050565b600081519050919050565b6000602082019050919050565b6000602082019050919050565b6000602082019050919050565b600082825260208201905092915050565b600082825260208201905092915050565b600082825260208201905092915050565b600082825260208201905092915050565b600082825260208201905092915050565b6000612a8782612a9a565b9050919050565b60008115159050919050565b600073ffffffffffffffffffffffffffffffffffffffff82169050919050565b6000819050919050565b6000612acf82612ad6565b9050919050565b6000612ae182612ae8565b9050919050565b6000612af382612a9a565b9050919050565b82818337600083830152505050565b60005b83811015612b27578082015181840152602081019050612b0c565b83811115612b36576000848401525b50505050565b6000601f19601f8301169050919050565b612b5681612a7c565b8114612b6157600080fd5b50565b612b6d81612aba565b8114612b7857600080fd5b5056fea2646970667358221220549d45e6712a0dc6c0efbabf78d6c264132717536a60ab39bc76ef876622c04164736f6c63430007000033",
  "immutableReferences": {},
  "source": "// SPDX-License-Identifier: MIT\r\npragma solidity 0.7.0;\r\npragma experimental ABIEncoderV2;\r\n\r\nimport \"./lib/math/SafeMath.sol\";\r\n\r\ncontract Platform {\r\n\r\n    using SafeMath for uint256;\r\n\r\n    struct Creator {\r\n        uint id;\r\n        string name;\r\n        string photoHash;\r\n        address addr;\r\n        uint256 fee;\r\n        uint256 postCount;\r\n        uint256 followerCount;\r\n        uint256 creatorSince;\r\n    }\r\n\r\n    struct Post {\r\n        uint id;\r\n        string title;\r\n        uint createdOn;\r\n        address creator;\r\n        string tags; //separate by commas\r\n    }\r\n\r\n    Post[] public posts;\r\n    Creator[] public creators;\r\n\r\n    mapping (uint => string) private postIdToHash;\r\n\r\n    mapping (address => uint) public addressToCreatorId;\r\n    mapping (address => bool) public isCreator;\r\n    mapping (address => uint[]) public creatorToPostIds;\r\n    mapping (address => mapping(address => bool)) public isFollower;\r\n\r\n    modifier onlyCreator() {\r\n        require(isCreator[msg.sender], \"You are not a creator\");\r\n        _;\r\n    }\r\n\r\n    event NewCreator(address creator, string name, uint fee);\r\n    event NewPost(string title, address creator);\r\n    event CreatorFollowed(address indexed user, address indexed creator, uint indexed fee);\r\n    event CreatorUnfollowed(address indexed user, address indexed creator, uint indexed fee);\r\n    event StreamUpdate(address indexed from, address indexed to, uint indexed amount, uint time);\r\n\r\n    function addCreator(string memory _name, string memory _photoHash, uint _fee) external {\r\n        require(!isCreator[msg.sender], \"You are already a creator\");\r\n\r\n        isCreator[msg.sender] = true;\r\n        uint id = creators.length;\r\n        Creator memory newCreator = Creator(id, _name, _photoHash, msg.sender, _fee, 0, 0, block.timestamp);\r\n        creators.push(newCreator);\r\n        addressToCreatorId[msg.sender] = id;\r\n\r\n        emit NewCreator(msg.sender, _name, _fee);\r\n    }\r\n\r\n    function getCreators() external view returns (address[] memory, uint) {\r\n        address[] memory list = new address[](creators.length);\r\n\r\n        for (uint i=0; i<creators.length; i++) {\r\n            list[i] = creators[i].addr;\r\n        }\r\n\r\n        return (list, list.length);\r\n    }\r\n\r\n    function getCreatorByAddress(address _addr) external view returns (Creator memory) {\r\n        uint id = addressToCreatorId[_addr];\r\n        return creators[id];\r\n    }\r\n\r\n    function createPost(string memory _docHash, string memory _title, string memory _tags) external onlyCreator {\r\n        uint id = posts.length;\r\n        posts.push(Post(id, _title, block.timestamp, msg.sender, _tags));\r\n        creatorToPostIds[msg.sender].push(id);\r\n\r\n        postIdToHash[id] = _docHash;\r\n\r\n        Creator storage myCreator = creators[addressToCreatorId[msg.sender]];\r\n        myCreator.postCount = (myCreator.postCount).add(1);\r\n\r\n        emit NewPost(_title, msg.sender);\r\n    }\r\n\r\n    function getPosts() external view returns (string[] memory, uint) {\r\n        string[] memory list = new string[](posts.length);\r\n\r\n        for (uint i=0; i<posts.length; i++) {\r\n            list[i] = posts[i].title;\r\n        }\r\n\r\n        return (list, list.length);\r\n    }\r\n\r\n    function canViewPost(uint _id) public view returns (bool) {\r\n        Post memory myPost = posts[_id];\r\n        if (isFollower[msg.sender][myPost.creator] || myPost.creator == msg.sender) {\r\n            return true;\r\n        } else {\r\n            return false;\r\n        }\r\n    }\r\n\r\n    function viewPost(uint _id) external view returns (Post memory) {\r\n        Post memory myPost = posts[_id];\r\n\r\n        require(canViewPost(_id), \"You are not a follower\");\r\n\r\n        return myPost;\r\n    }\r\n\r\n    function getCreatorPosts(address _addr) external view returns (uint[] memory) {\r\n        uint[] memory list = new uint[](creatorToPostIds[_addr].length);\r\n\r\n        for (uint i=0; i<list.length; i++) {\r\n            list[i] = creatorToPostIds[_addr][i];\r\n        }\r\n\r\n        return list;\r\n    }\r\n\r\n    function followCreator(address _addr) external {\r\n        Creator storage myCreator = creators[addressToCreatorId[_addr]];\r\n\r\n        require(!isFollower[msg.sender][_addr], \"You are already a follower\");\r\n        // require(msg.value == myCreator.content_fee, \"Pay correct fee to follow creator\");\r\n\r\n        isFollower[msg.sender][_addr] = true;\r\n\r\n        myCreator.followerCount = (myCreator.followerCount).add(1);\r\n\r\n        emit CreatorFollowed(msg.sender, _addr, myCreator.fee);\r\n        emit StreamUpdate(msg.sender, _addr, myCreator.fee, block.timestamp);\r\n    }\r\n\r\n    function unfollowCreator(address _addr) external {\r\n        require(isFollower[msg.sender][_addr], \"You are not a follower\");\r\n\r\n        isFollower[msg.sender][_addr] = false;\r\n\r\n        Creator storage myCreator = creators[addressToCreatorId[_addr]];\r\n        myCreator.followerCount = (myCreator.followerCount).sub(1);\r\n\r\n        emit CreatorUnfollowed(msg.sender, _addr, myCreator.fee);\r\n        emit StreamUpdate(msg.sender, _addr, 0, block.timestamp);\r\n    }\r\n\r\n}\r\n",
  "sourcePath": "D:/dhruv/Desktop/super/contracts/Platform.sol",
  "compiler": {
    "name": "solc",
    "version": "0.7.0+commit.9e61f92b.Emscripten.clang"
  },
  "schemaVersion": "3.3.3",
  "updatedAt": "2021-02-20T14:37:29.767Z",
  "networkType": "ethereum",
  "devdoc": {
    "kind": "dev",
    "methods": {},
    "version": 1
  },
  "userdoc": {
    "kind": "user",
    "methods": {},
    "version": 1
  }
}